:1000000000308A003C28000025308400831300085B
:10001000031917280230F800F701F70B0D28F80B29
:100020000C289730F700F70B1328800B0A280800DC
:1000300094138C11240893000230941B26288C1DE5
:100040001F2800308316111B01308312F8008A111B
:100050000A12B82814138316911591192D287718B0
:100060009112771C91161116111A34288312130855
:10007000F8008A110A12BB2803081F398300713067
:1000800083168F0090010F08FF308312A000A01587
:100090002008831687008312201620088316870005
:1000A000133093002830831294008316941714138E
:1000B0008312A101831603170908C03989000313AD
:1000C0001F129F12003003178800831287018801D6
:1000D0008901831300308316031386007F30850067
:1000E0008513831285130930031785000F30F7003D
:1000F000031381018130840083130008F03907382D
:10010000800064000008F739F719F039770480009F
:1001100005189428C830A500042083168513803064
:10012000831285066400882883168513831285133D
:100130000430A400FA30A5000420A40B9A288316EA
:10014000851383128517A301A20164002308073CCD
:10015000031CCC28031DB0282208C63C031CCC2855
:10016000831611141118B22871308312A4001828B4
:100170000130F7002A287808A100831611151119FB
:10018000BF288312210886000130A5000420A20A9E
:0C0190000319A30A6400A6289428630049
:04400E00EC2FFF3F55
:00000001FF
;PIC16F887
;CRC=9AE9  CREATED="24-ago.-21 18:17"
