:1000000000308A00BF280000FF00030E8301A1001A
:100010000A08A0008A010408A2007708A300780853
:10002000A4007908A5007A08A600831383128C30F7
:100030008400801E1D288C1A2E2822088400230884
:10004000F7002408F8002508F9002608FA0020081F
:100050008A00210E8300FF0E7F0E09008A110A120A
:1000600031288C1E31281A08A80028082B3C031DB3
:100070003E286430A9070318AA0A482828082D3CFE
:10008000031D48286430A9020030031C0130AA0275
:10009000103084002A08AE002908AD00B50104081C
:1000A000B4003510831B35142E0EF038B000B007A5
:1000B000E23EB100323EB3002E080F39B107B1075E
:1000C000B307E93EB200B207B2072D0E0F39B207EF
:1000D000B307B20DB30DB309B30D2D080F39B30734
:1000E000B00D0730AF000A30B307B203031C742809
:1000F000B207B103031C7828B107B003031C7C28A6
:10010000B007AF03031C80282F308400831307300F
:1001100034053413840733300402031934170008FC
:10012000F700031D9B28341B9B28341AA328B419FD
:100130009B2820309E28B41534123030F7077708FA
:100140000C1EA0289900840A341F8B280A300C1E2C
:10015000A72899008C128A110A121D280830AC02B7
:10016000031CBE282C30840083130310800C00086D
:100170000319BE28BC280000800BBB280800030818
:100180001F398300713083168F0090010F08031709
:1001900087110C3003139900A2309800903083121D
:1001A0009800FF30A700A801AA01A9018316031730
:1001B0000908C039890003131F129F12003003176A
:1001C000880083128701880189018313FE3083161A
:1001D0000313850083120510C0308B0483168C1620
:1001E00007308312AA00D030A90005142A08AB00FA
:1001F000AB0AAB0303190029FF30AC00AE20F9288D
:100200002908AC00AE2005102A08AB00AB0AAB03EE
:1002100003190E29FF30AC00AE2007292908AC00D5
:06022000AE20F52863008A
:04400E00E42FFF3F5D
:00000001FF
;PIC16F887
;CRC=9B06  CREATED="23-ago.-21 16:04"
